:1000000012C02CC02BC02AC029C028C027C026C0BF
:10001000BEC03EC023C022C021C020C01FC01EC021
:100020001DC01CC01BC011241FBECFE5D4E0DEBF25
:10003000CDBF10E0A0E6B0E0EEE9F2E002C005902E
:100040000D92A637B107D9F720E0A6E7B0E001C0CE
:100050001D92A438B207E1F7CED01FC1D1CFFB016A
:100060002AE030E0B901F2D070937D0060937C000B
:1000700090937B0080937A00CF01B901E7D0709311
:1000800079006093780090937700809376000895CC
:100090001F920F920FB60F9211248F939F93EF939D
:1000A000FF9380917E0090917F00019690937F0056
:1000B00080937E00069724F010927F0010927E00BD
:1000C00080917E0090917F008130910589F485B305
:1000D0008E6085BB85B38E7F85BBE0917C00F091FF
:1000E0007D00EE0FFF1FE05AFF4F808188BB46C0A6
:1000F0008230910589F485B38D6085BB85B38D7F92
:1001000085BBE0917A00F0917B00EE0FFF1FE05A73
:10011000FF4F808188BB32C08330910549F485B39D
:100120008D6085BB85B38D7F85BB80E888BB26C08D
:100130008430910589F485B38B6085BB85B38B7F53
:1001400085BBE0917800F0917900EE0FFF1FE05A37
:10015000FF4F808188BB12C0059781F485B387600B
:1001600085BB85B3877F85BBE0917600F0917700F2
:10017000EE0FFF1FE05AFF4F808188BBFF91EF9188
:100180009F918F910F900FBE0F901F9018951F9207
:100190000F920FB60F9211248F939F9386EF92ECDC
:1001A0009DBD8CBD809182009091830001969093BB
:1001B000830080938200CB9769F4109283001092A1
:1001C000820080918000909181000196909381003F
:1001D000809380008091800090918100CB9721F4E2
:1001E00010928100109280009F918F910F900FBE0E
:1001F0000F901F9018958FEF87BB18BA84B38F604C
:1002000084BB85B38F6085BB8EB583608EBD8EB594
:100210008B7F8EBD86EF92EC9DBD8CBD89B78460CF
:1002200089BF83B7826083BF83B78B7F83BF12BED2
:1002300089B7816089BF7894609182007091830052
:1002400080918000909181000ADFF6CF97FB072E06
:1002500016F4009406D077FD08D00BD007FC05D02B
:100260003EF4909581959F4F0895709561957F4FCD
:100270000895AA1BBB1B51E107C0AA1FBB1FA617ED
:10028000B70710F0A61BB70B881F991F5A95A9F73F
:0E02900080959095BC01CD010895F894FFCFA4
:10029E003F0006005B004F0066006D007D0007000A
:0602AE007F006F008000DC
:00000001FF
