:1000000012C02CC02BC02AC029C028C027C026C0BF
:1000100025C024C023C022C021C020C01FC01EC0D4
:100020001DC01CC01BC011241FBECFE5D4E0DEBF25
:10003000CDBF10E0A0E6B0E0EAEBF0E002C0059032
:100040000D92A437B107D9F720E0A4E7B0E001C0D2
:100050001D92A637B207E1F702D02DC0D1CF8EB5E1
:1000600083608EBD8EB58B7F8EBD1DBC1CBC8FEF9B
:1000700087BB18BA8CB59DB589309D43D9F71DBC97
:100080001CBCE0917400F0917500EE0FFF1FE05A68
:10009000FF4F808188BB809174009091750001961C
:1000A00090937500809374000A9721F71092750061
:0A00B00010927400DFCFF894FFCF28
:1000BA003F0006005B004F0066006D007D000700F0
:0400CA007F006F0044
:00000001FF
